:1000000008308A009B2800000A108A100A11820713
:1000100028340C34013406340C10CD2443294F10FD
:100020002028D227CA22432A2010000020102010A6
:100030002010C5244F2A20102010201000010C1081
:10004000A02069392010D13A6136693A7910200030
:10005000A0266F37693A6F39A029F939F4326D104B
:1000600000008C26D118B31A201D200050284D10F6
:1000700020103A102517323300000C284D19AE1A03
:10008000201D2000D6274C2A20103A102517323385
:1000900000010C2AC52650103A10A53AAE12750080
:1000A000C82ACD24201DA0127517A53AA51200015B
:1000B0008C206939A029F430F43A73103A002010EA
:1000C000A023CF27441020100001A0264F2245294D
:1000D000412A45100001201020214122A1102010AA
:1000E00000010C234127201D20004F2720004F2313
:1000F00046005329561D3918A531A0202000532948
:10010000561DB012631041100001422DBA274E0057
:10011000422DBA2746230001D026B21ABA12EC3A71
:100120002C00CD28B119351D253675160001D422B5
:100130004D28BA127517A53A2C00C82ACD24BA1238
:100140007517A53A2C00C6204E1D25322C00D32B46
:10015000492A4324BA1264160001D322522B4F1DA0
:1001600025322C00C22A5A2D4529BA1264050000F6
:1001700051308400831300080319CB280630F8009F
:10018000F701F70BC128F80BC0287B30F700F70BFD
:10019000C728800BBE2808005818D0280612D1287E
:1001A0000616831606128312D818D8288612D92864
:1001B00086168316861283125819E0280613E12842
:1001C0000617831606138312D819E8288613E92820
:1001D00086178316861300008312061583160611F0
:1001E0000230F700F70BF228F52800008312061101
:1001F0008316061183120800D901831606160030F3
:100200008312061A0130D904831686160030831231
:10021000861A0130F7000310F70D7708D90483160A
:10022000061700308312061B0130F700F70DF70D9B
:10023000FC30F7057708D90483168617003083123F
:10024000861B0130F700F70DF70DF70DF830F705B5
:100250007708D9045908F80008008316061106101B
:1002600086108312061083160610061686160617C9
:1002700086178312861483168610000083120615D3
:100280008316061100008312FC207808D80006119E
:1002900083160611000083120615831606115029D5
:1002A000512900008312FC207808D700061183161C
:1002B000061106128612061386138312580EF700D3
:1002C000F030F70577085704F8007808D700D71FF3
:1002D0006B2983163529D508031D7029061071294D
:1002E00006148316061000008312861083168610EB
:1002F000000083120611831606118312560ED700D2
:100300000F30D7055708D800CC2056080F39D70032
:10031000D800CC2008008316061286120613861316
:10032000061106108610831206108316061083121B
:1003300086108316861083120611831606110F305D
:100340008312D100B8200130C3004308033C031CD2
:10035000B1290330D800CC200530D100B820C30A21
:10036000A5290230D800CC200530D100B820C30127
:100370004308033C031CC52943080420C400D501DD
:100380004408D6002D21C30AB8298A150A12CB28A1
:10039000520BCB29CE294030D300CF29D3010130D5
:1003A0005102D30753088038D400D5015408D60031
:1003B0002D2108005008073A0319E8290B3A0319C0
:1003C000ED29063A0319F529023A0319FB29002AF7
:1003D0000130D100D200C821052AD5010130D60054
:1003E0002D210230D100B820052A0130D100023081
:1003F000D200C821052AD5011030D6002D21052AAA
:100400000130D5005008D6002D2108000B08C3008C
:100410008B13831603178C170C1400000000831233
:100420000C087F3903194D2A0313C40003170D0864
:100430000313C50003170F080313C6004408D000B8
:10044000DA21450803178D000313460803178F00B0
:1004500083168C170C140000000083120C0D0E0D77
:100460007F3903194D2A0313C40003170D08031322
:10047000C50003170F080313C6004408D000DA2193
:10048000450803178D000313460803178F008D0AD4
:1004900003198F0A0313092A03170313C31B8B17AE
:1004A00008008E30F7004408F8004308F900FA010C
:1004B000F808031D652A7908F800F9010830F702E9
:1004C000F808031D652AF7016D2A0310F81B6C2A32
:1004D000F90DF80DF703652AF81308005008031901
:1004E000DE2AD80054080319DE2AD80703187F2A09
:1004F0007F30D802031CDE2A0319DE2A832A8130CA
:10050000D8070318DE2A5808F700F801F901FA01A4
:100510005108DC00DC175208DB005308DA00183001
:10052000D800D9015A1CAC2A5708FA07031C9E2A86
:10053000F90A031D9E2AF80A0319D9175608F90764
:10054000031CA52AF80A0319D9175508D200D21797
:100550005208F8070318D917D90DF80CF90CFA0C42
:10056000DC0CDB0CDA0C0310D80B912A0130F707F6
:100570000318DE2AF81BC32ADC0DFA0DF90DF80D5D
:10058000F7030319DE2ADC1FD42AFA0A031DD42A32
:10059000F90A031DD42AF80A031DD42AF80CF90C11
:1005A000FA0CF70A0319DE2A5108D9005508D906B2
:1005B000D91FDC2AF817E22AF813E22AF701F8011A
:1005C000F901FA01080047080319A82BD3004B08CA
:1005D0000319A82BD302031CF22A7F30D307031878
:1005E000A82BF82A8130D302031CA82B0319A82BAF
:1005F0005308F700F801F901FA01D2014808D100C7
:10060000D1174908D0004A08CF001930D3004E084E
:10061000CF0203181B2B0130D00203181B2BD10271
:1006200003181B2BD20203181B2BD20AD10AD00AA3
:100630004E08CF074D2B4D08D0020318362B013042
:10064000D1020318362BD2020318362BD20AD10A54
:100650004D08D0074E08CF07031C4D2BD00A031DB1
:100660004D2BD10A031D4D2BD20A4D2B4C0880383F
:10067000D10203184C2B0130D20203184C2BD20AA2
:100680004C088038D1074D08D007031C2A2BD10A0B
:10069000031D2A2BD20A2A2B7A14D30B502B5B2B47
:1006A0000310CF0DD00DD10DD20D0310FA0DF90DA1
:1006B000F80DD40D072B541C632B0310F80CF90C08
:1006C000FA0CD40C662BF7030319A82BD41B8F2B21
:1006D0000310CF0DD00DD10DD20D4E08CF0203184F
:1006E0007B2B0130D00203187B2BD10203187B2B0C
:1006F000D202031C9E2B4D08D0020318862B01301A
:10070000D1020318862BD202031C9E2B4C08803882
:10071000D10203188F2B0130D202031C9E2BFA0A40
:10072000031D9E2BF90A031D9E2BF80A031D9E2B09
:10073000F70A0319A82BF80CF90CFA0C4808D30097
:100740004C08D306D31FA62BF817AC2BF813AC2BF1
:10075000F701F801F901FA0108000330C902031C8E
:10076000BB2B49308400831300080319BB2BB92B22
:10077000B92B800BB82B08002010200883168700A7
:10078000831220102008831687008312071014306C
:10079000D100B82020102008831687008312071488
:1007A0003130F700F70BD22BD52B013083168700A1
:1007B0008312A0004230F700F70BDC2B000020145E
:1007C00020088316870083120718FB2B8430F7005C
:1007D000F70BE82BEB2B0000201420088316870072
:1007E0008312071CFB2B4230F700F70BF52B0000A0
:1007F0000130F800FD2B0030F800F808031D032C31
:100800000030F800762CC5014508043C031C472C39
:1008100045084307F8004408FA000318FA0A780864
:10082000C6007A08C700C901C8014808073C031C74
:100830003C2C20142008831687008312071C192CD7
:100840003130F700F70B222C252C201420088316BA
:1008500087008312071C312C0310490D0138C90091
:10086000332C0310C90D201420088316870083122F
:100870000718332CC80A152C4908F80046088400CC
:1008800083134718831778088000C50A042C0430A6
:10089000430784008313441883170008C6004308E5
:1008A00084008313441883170008C70001304307EE
:1008B00084008313441883170008C70702304307D6
:1008C00084008313441883170008C70703304307C5
:1008D000840083134418831700084707460203194E
:1008E000742C0030F800762C0130F8008A150A12BA
:1008F000F829CB010408CA004B10831B4B14440E8B
:10090000F038C600C607E23EC700323EC9004408C0
:100910000F39C707C707C907E93EC800C807C80796
:10092000430E0F39C807C907C80DC90DC909C90D3C
:1009300043080F39C907C60D0730C5000A30C9077B
:10094000C803031C9F2CC807C703031CA32CC7079D
:10095000C603031CA72CC607C503031CAB2C4530DC
:100960008400831307304A054A1384074930040280
:1009700003194A170008F700031DC62C4A1BC62C92
:100980004A1AD82CCA19C62C2030C92CCA154A12AA
:100990003030F707C4010408C3004410831B44141B
:1009A0007708D000DA2143088400831344188317A2
:1009B000840A4A1FB62C08000B08C4008B13831648
:1009C00003178C170C140000000003180E2D83125F
:1009D0000C087F390313C50003170D080313C60065
:1009E00003170F080313C7004508D000DA21460893
:1009F00003178D000313470803178F0083168C1706
:100A00000C140000000083120313C30B082D0B2DE0
:100A1000831603170E2D2D2D8316031783120C0D2D
:100A20000E0D7F390313C50003170D080313C6000D
:100A300003170F080313C7004508D000DA21460842
:100A400003178D000313470803178F008D0A03193E
:100A50008F0A03100313C30BDF2CC41B8B17080072
:100A60008318352D583084008313F701F801F901FC
:100A7000FA01D801D901DA01DB01570856045504FF
:100A800054040319732D2030DC000310D00DD10D58
:100A9000D20DD30DD80DD90DDA0DDB0D57085B0241
:100AA000031D5C2D56085A02031D5C2D5508590282
:100AB000031D5C2D54085802031C6D2D5408D802E8
:100AC0005508031C550FD9025608031C560FDA02AD
:100AD0005708031C570FDB020314F70DF80DF90D2F
:100AE000FA0DDC0B452D58088000840A5908800057
:100AF000840A5A088000840A5B0880000800040801
:100B0000C8004708CA0003199E2D4608D3004508AF
:100B1000D2004408D1004308D000D701D6012030CC
:100B2000D5008230D4006E227A08C6007908C5004C
:100B30007808C4007708C300CA0B852D4608D30087
:100B40004508D2004408D1004308D0005008B63C04
:100B5000D000FA015108D400D1170310D10CD20CE7
:100B6000D30CFA0CF90CF80CF70CD00BAD2DD41FEC
:100B7000C42DF709F809F909FA09F70A0319F80A5F
:100B80000319F90A0319FA0A7A08C6007908C50098
:100B90007808C4007708C300C61FDB2DC803C81639
:100BA000C309C409C509C609C30A0319C40A03193C
:100BB000C50A0319C60A3B30CF009A30CE00CA30AE
:100BC000CD00CC010A30CA0047080319C80A8314B3
:100BD0004330840083134608D3004508D2004408FC
:100BE000D1004308D0004F08D7004E08D6004D086A
:100BF000D5004C08D40030257808F708031D132EC3
:100C0000470A4A020319132E48080319152E0F39F3
:100C10004A0203190D2E0318452EC81B452E481BEA
:100C2000152E2030412E2030C805C81E232EC81294
:100C30004708031DC8037708C8002D30D000DA210B
:100C40004808F700C80147084A02031D312E7708FB
:100C5000C8002E30D000DA214808F7002030C8053F
:100C600000303030C81E412EC8124708031DC8038B
:100C70007708C8002D30D000DA214808F700C801F5
:100C80003030F7077708D000DA2183104F08D300FF
:100C90004E08D2004D08D1004C08D000D701D60133
:100CA000D5010A30D40030257A08CF007908CE006B
:100CB0007808CD007708CC00CA0BE72D0800C901E1
:100CC000C801C7014308C6004908CD004808CC0048
:100CD0004708CB004608CA00D101D0010330CF003D
:100CE000E830CE002030D600D201D301D401D501A6
:100CF0004D08FA004C08F9004B08F8004A08F700C4
:100D00000310771C912E4E08D2074F0803184F0F7F
:100D1000D30750080318500FD40751080318510F78
:100D2000D507D50CD40CD30CD20CFA0CF90CF80C5A
:100D3000F70CD60B802E7A08C9007908C80078080D
:100D4000C7007708C60083107A08D3007908D2005C
:100D50007808D1007708D000D701D601D501B4308A
:100D6000D4003025E8307707C4007808C500033088
:100D700003180430C50708144508C600C60AC60390
:100D80000319C62EFF30C900AD23BF2E4408C90089
:100D9000AD2308104408203CC6004E30C70045086B
:100DA000031C450FC7024708C800C80AC803031937
:100DB000DD2EFF30C900AD23D62E4608C900AD2375
:100DC00008004B08F8014A020318E92E4A08F70008
:100DD000F52EF7010830CC00CA0DF70D4B0877024D
:100DE0000318F700F80DCC0BEC2E08007808430828
:100DF000CA006430CB00E1267708C30078083030A1
:100E0000031D092FC41C102FC419102F441A2030A1
:100E10000C2FC41144124414F8077808D000DA21CA
:100E20004308CA000A30CB00E1267708C3007808DF
:100E30003030031D212FC419252F441C252F441A9F
:100E40002030F8077808D000DA213030C307430893
:100E5000D000DA2108000B08C5008B138316031796
:100E60008C170C140000000003185E2F83120C086E
:100E70007F390313C60003170D080313C7000317B8
:100E80000F080313C80046080C1E442F990047089A
:100E900003178D000313480803178F0083168C1760
:100EA0000C140000000083120313C40B582F5B2F97
:100EB000831603175E2F7E2F8316031783120C0DE4
:100EC0000E0D7F390313C60003170D080313C70067
:100ED00003170F080313C80046080C1E6D2F990056
:100EE000470803178D000313480803178F008D0A66
:100EF00003198F0A03100313C40B2E2FC51B8B1766
:100F00000800CB010408CA004B10831B4B14440E8D
:100F1000F038C600C607E23EC700323EC9004408AA
:100F20000F39C707C707C907E93EC800C807C80780
:100F3000430E0F39C807C907C80DC90DC909C90D26
:100F400043080F39C907C60D0730C5000A30C90765
:100F5000C803031CA72FC807C703031CAB2FC70771
:100F6000C603031CAF2FC607C503031CB32F4530B0
:100F70008400831307304A054A138407493004026A
:100F800003194A170008F700031DCE2F4A1BCE2F66
:100F90004A1AD62FCA19CE2F2030D12FCA154A127D
:100FA0003030F70777080C1ED32F9900840A4A1FA8
:040FB000BE2F080048
:1010000078084308CA006430CB008A11E1268A15AB
:101010007708C30078083030031D1528C41C1D282C
:10102000C4191D28441A20301828C411441244142D
:10103000F80778080C1E1A2899004308CA000A30DD
:10104000CB008A11E1268A157708C3007808303072
:10105000031D3028C4193528441C3528441A203073
:10106000F80778080C1E322899003030C30743086F
:101070000C1E3828990008002030451E3030C6006C
:101080004408F700C41F4C28F709F70A7708C40082
:101090002D30C600C51745144408CA006430CB0083
:1010A0008A11E1268A157708C40030307807C70016
:1010B0004408CA000A30CB008A11E1268A15303074
:1010C0007707C90030307807C8004608F70030308D
:1010D000470203196F28C514C51B45158328460808
:1010E000C7002030C6003030480203197B28451461
:1010F000C51BC5148328031D4514031D83284708F9
:10110000C8002030C70045198A28C5188E28451800
:101110009228962846080C1E8B28990047080C1E1A
:101120008F28990048080C1E9328990049080C1E26
:1011300097289900080003081F398300813083161F
:101140009900A6309800903083129800FF30A000DC
:1011500083161F149F141F159F1107309C008313C3
:101160000A3088001F109F101F119F111F13831238
:101170001F179F1783169F1783121F14FD308316A6
:1011800087008312A000A010200883168700831216
:1011900087148A118B298A15A101BB01BC01BD01ED
:1011A0000811BB010810A1018813BD0108128812A3
:1011B00008130C3003178D0000308F008A110313C1
:1011C00006228A150130D1000230D2008A11C821CE
:1011D0008A15163003178D0000308F008A11031313
:1011E00006228A150230C300FA30D1008A11B820D5
:1011F0008A15C30BF4281F3003178D0000308F00B1
:101200008A11031306228A150130D1000230D20060
:101210008A11C8218A15283003178D0000308F00ED
:101220008A11031306228A150230C300FA30D10056
:101230008A11B8208A15C30B1629881922295A3019
:10124000A1002329A1010030F8001F08C739780444
:101250009F002030F700F70B2B292E2900001F15C7
:101260001F19302983161E088312A2001E08A3002E
:101270002308C4002208C3008A1151228A157A0863
:10128000D3007908D2007808D1007708D000D701C0
:10129000D6012030D5008130D4008A116E228A1503
:1012A0007A08C6007908C5007808C4007708C3002A
:1012B0007A08CA007908C9007808C8007708C7000A
:1012C000CE01C030CD007F30CC008830CB008A11F9
:1012D000E3228A157A08A9007908A8007808A700EF
:1012E0007708A6002908D3002808D2002708D100D3
:1012F0002608D000D701D6014830D5008630D4006A
:101300008A116E228A157A08AD007908AC00780837
:10131000AB007708AA00A01020088316870083126C
:1013200087100230C3008B30C9008A11AD238A15A3
:10133000C30B93290830F8001F08C73978049F00B1
:101340004230F700F70BA22900001F151F19A6292C
:1013500083161E088312A4001E08A500A0102008F2
:1013600083168700831287142508C4002408C3004D
:101370008A1151228A157A08D3007908D200780898
:10138000D1007708D000D701D6012030D5008130B8
:10139000D4008A116E228A157A08C6007908C50021
:1013A0007808C4007708C3007A08CA007908C90021
:1013B0007808C8007708C700CE01C030CD007F3064
:1013C000CC008830CB008A11E3228A157A08B1005C
:1013D0007908B0007808AF007708AE000A30D10075
:1013E0008A11B8208A15C4013230C3008A11BC2B7F
:1013F0008A15F8080319052A3208B7003308B8001F
:101400003408B9003508BA000A2ABA013A08B90006
:10141000B800B700A308031D1E2A2208F93C031CCC
:101420001E2AA508031D1E2A2408633C031C1E2A2D
:1014300039081D3C031C1E2ABC013B2A2308023C20
:10144000031C392A031D282A2208573C031C392A69
:101450002508013C031C392A031D322A24088F3C2D
:10146000031C392A3908273C031C392A0130BC00E7
:101470003B2A0230BC00BC08031D462A081688120D
:1014800008130811BB018813BD015A2A3C0B502ACE
:101490000812881608130811BB018813BD015A2AC7
:1014A00008128812081708150130BB008817BD0004
:1014B0005A30A10088185F2A08150130BB0031306E
:1014C00003178D0000308F008A11031306228A153E
:1014D000103084002308C4002208C3008A11792434
:1014E0008A150130D1000230D2008A11C8218A1534
:1014F000363003178D0000308F00031008300313BF
:10150000C3008A11DC248A15893084002D08C600A6
:101510002C08C5002B08C4002A08C3000230C700ED
:101520008A117F258A15BE013E081D3C031C9F2A97
:101530002108C3008A115F268A15BE0A942A3D300D
:1015400003178D0000308F008A11031306228A15BD
:10155000103084002508C4002408C3008A117924AF
:101560008A150130D1000230D2008A11C8218A15B3
:10157000423003178D0000308F0003100830031332
:10158000C3008A11DC248A15893084003108C60022
:101590003008C5002F08C4002E08C3000230C70061
:1015A0008A117F258A15BF013F081D3C031CDF2AD5
:1015B0002108C3008A115F268A15BF0AD42A493040
:1015C00003178D0000308F00031008300313C30091
:1015D0008A11DC248A153908C3001B30C4008A1123
:1015E000F6268A152E30D0008A11DA218A153A089B
:1015F000C3001B30C4008A11F6268A15DF30D000E4
:101600008A11DA218A154330D0008A11DA218A152D
:101610000130D1000230D2008A11C8218A15503021
:1016200003178D0000308F00031007300313C30031
:101630008A11DC248A153708C3001B30C4008A11C4
:10164000F6268A152E30D0008A11DA218A1538083C
:10165000C3001B30C4008A11F6268A152530D0003D
:101660008A11DA218A15C00140081D3C031C3F2B5A
:101670002108C3008A115F268A15C00A342B58300E
:1016800003178D0000308F008A11031306228A157C
:101690000130D1000230D2008A11C8218A15BC085D
:1016A000031D5C2B5F3003178D0000308F008A1103
:1016B000031306228A15712B3C0B682B6530031728
:1016C0008D0000308F008A11031306228A15712BBA
:1016D0006B3003178D0000308F008A110313062230
:1016E0008A15C10141081D3C031C7D2B2108C30044
:1016F0008A115F268A15C10A722B713003178D007B
:1017000000308F008A11031306228A15BB080319C3
:10171000932B753003178D0000308F008A1103134F
:1017200006228A159C2B773003178D0000308F001E
:101730008A11031306228A150130D1000230D2002B
:101740008A11C8218A1521085A3C031DC82B7930FB
:1017500003178D0000308F00031006300313C30001
:101760008A11DC248A15DF30D0008A11DA218A152B
:101770002030D0008A11DA218A154130D0008A1138
:10178000DA218A152030D0008A11DA218A15E82B57
:101790007F3003178D0000308F00031005300313D6
:1017A000C3008A11DC248A15DF30D0008A11DA21C7
:1017B0008A152030D0008A11DA218A154130D000F4
:1017C0008A11DA218A152030D0008A11DA218A158F
:1017D000BD080319F52B853003178D0000308F00ED
:1017E0008A11031306228A15FE2B883003178D00F9
:1017F00000308F008A11031306228A15C2014208A5
:101800001D3C031C0A2C2108C3008A115F268A157F
:10181000C20AFF2B8C3003178D0000308F0003109D
:1018200005300313C4008A112B278A151030840059
:101830002508C4002408C3008A1181278A152C308A
:101840000C1E202C9900913003178D0000308F0062
:10185000031006300313C4008A112B278A15103099
:1018600084002308C4002208C3008A1181278A1536
:101870002C300C1E392C9900973003178D00003046
:101880008F00031005300313C4008A112B278A151B
:101890003908C3001B30C40000202E300C1E4E2C13
:1018A00099003A08C3001B30C40000202C300C1EE5
:1018B000572C99009D3003178D0000308F000310C6
:1018C00005300313C4008A112B278A153708C3007B
:1018D0001B30C40000202E300C1E6C2C99003808E0
:1018E000C3001B30C40000202C300C1E752C990046
:1018F000A33003178D0000308F0003100430031352
:10190000C4008A112B278A153B08C4001830C50073
:101910003C202C300C1E8A2C99000030881C013091
:10192000C300A73003178D0000308F00031007306D
:101930000313C4008A112B278A154308C4001830EA
:10194000C5003C202C300C1EA32C9900AD30031791
:101950008D0000308F00031006300313C4008A117D
:101960002B278A152108C4001830C5003C202C30D4
:101970000C1EB82C9900B23003178D0000308F0078
:10198000031007300313C4008A112B278A153D0862
:10199000C4001830C5003C200A300C1ECD2C990024
:0419A0001D2963009A
:02400E00323F3F
:00000001FF
;PIC16F877A
;CRC=FE04  CREATED="04-Oct-25 16:29"
